:020000040800F2
:10400000602E002081410008B760000811600008A0
:1040100000000000000000000000000000000000A0
:10402000000000000000000000000000F166000831
:10403000000000000000000009620008056B000895
:104040009341000893410008934100089341000800
:1040500093410008ED5B000893410008F95B0008FC
:1040600093410008934100089341000893410008E0
:104070009341000893410008934100086D6D0008CA
:10408000796F0008934100089341000893410008AC
:1040900093410008896B0008934100089341000890
:1040A00093410008934100089341000893410008A0
:1040B000557300089341000893410008D18200081D
:1040C00000F002F800F030F80CA030C808382418CE
:1040D0002D18A246671EAB4654465D46AC4201D140
:1040E00000F022F87E460F3E0FCCB6460126334242
:1040F00000D0FB1AA246AB4633431847E4B3000096
:1041000014B400000023002400250026103A01D337
:1041100078C1FBD8520700D330C100D50B6070477F
:104120001FB51FBD10B510BD00F0E0FF1146FFF731
:10413000F7FF06F0ADF800F0F8FF03B4FFF7F2FF69
:1041400003BC01F029F8000070B505460C46164680
:1041500002E00FCC0FC5103E102EFAD2082E02D36B
:1041600003CC03C5083E042E07D301CC01C5361F7E
:1041700003E021782970641C6D1C761EF9D270BD95
:104180000748804707480047FEE7FEE7FEE7FEE7EF
:10419000FEE7FEE704480549054A064B7047000064
:1041A000096B0008C140000860280020602E002034
:1041B000602A0020602A002030B5441C03E001780A
:1041C000401C00290DD08107F9D10B4BDD0104C83B
:1041D000D11A91432940FAD0001B0A0603D0C01E11
:1041E00030BD001B30BD0A0401D0801E30BD090265
:1041F000FCD0401E30BD00000101010101E004C0FF
:10420000091F0429FBD28B0701D50280801CC90736
:1042100000D00270704700290BD0C30702D0027093
:10422000401C491E022904D3830702D50280801C4A
:10423000891EE3E70022EEE70022DFE70022030900
:104240008B422CD3030A8B4211D300239C464EE0B1
:1042500003460B433CD4002243088B4231D303096D
:104260008B421CD3030A8B4201D394463FE0C3091F
:104270008B4201D3CB01C01A524183098B4201D337
:104280008B01C01A524143098B4201D34B01C01A22
:10429000524103098B4201D30B01C01A5241C3089A
:1042A0008B4201D3CB00C01A524183088B4201D309
:1042B0008B00C01A524143088B4201D34B00C01AF5
:1042C0005241411A00D201465241104670475DE00A
:1042D000CA0F00D04942031000D34042534000228D
:1042E0009C4603098B422DD3030A8B4212D3FC2236
:1042F000890112BA030A8B420CD3890192118B42B5
:1043000008D3890192118B4204D389013AD09211CA
:1043100000E08909C3098B4201D3CB01C01A524185
:1043200083098B4201D38B01C01A524143098B424E
:1043300001D34B01C01A524103098B4201D30B0137
:10434000C01A5241C3088B4201D3CB00C01A52415C
:1043500083088B4201D38B00C01A5241D9D2430843
:104360008B4201D34B00C01A5241411A00D2014680
:10437000634652415B10104601D34042002B00D5EA
:104380004942704763465B1000D3404201B50020AC
:10439000C046C04602BD704770477047F0B50C4636
:1043A000871A9C410D46861A9D4103D2C01BA1412C
:1043B000D21963410D0D1F0DC94EEC1BAE435CD0ED
:1043C0007F057F0D0026002F51D02D05AC46A94357
:1043D000DD020123ED0A1B051D4320231B1B24D4F2
:1043E0001746E740381871412F46E740CC199D40E9
:1043F0002818314661410C0D27D161449A4013D5EC
:104400000023401C594152000ED1400840000122B7
:104410004B005205D34207D305204007C14201D5C6
:10442000B04900E0B0493046F0BD6B00002A00D032
:1044300001229A181F23203C1B1B01D5002302E0F8
:10444000E540281871410C0DD7D001242405091925
:10445000C407CD0740084908E40F28436144002CF5
:10446000D5D00024401C61419A40D0D1CDE76A05E7
:10447000520DD9D1C90FC907D5E79C4D4E00002870
:1044800001D0012400E0002434195F00002A01D08B
:10449000012600E00026BE19954FAC420CD8AE4272
:1044A0000AD8B44206D001256D05EC42BCD01046B6
:1044B0001946F0BD9942FCD000203946F0BDF0B558
:1044C0001FB40C460F46811A9F412546861A9D410E
:1044D00006D20125ED076F40401ABC4152187B41BE
:1044E000210D1E0D8D1BAC467D4D8D437ED0750577
:1044F0006D0D7CD00D05AE46AC431B031B0B794DF7
:1045000052429D41202366469B1B14D31746F74019
:10451000381800260090744160462F460741E41980
:1045200000989D402818664116D4714671189A402B
:1045300025D5012320E093182A466A415200002B1A
:1045400000D0521C1E23203E9B1B002B61DD3541F9
:10455000EE1728186641E8D5001876415B1C9A4092
:1045600000D3401C4B05F3181524E34010D3002B57
:1045700052D071467118D30FC01802D3491C05B030
:10458000F0BD0123DB079A42F9D140084000F6E76D
:1045900001225205B21801D1002853D00123CC0AC0
:1045A000DB029943891E002A08D1020C03D0020CB9
:1045B0000004103902E00246002020390023550B88
:1045C00005D112020823550B01D152010D23550CC0
:1045D00001D112011B1DD50C01D192009B1C150DA0
:1045E00001D152005B1C2025EE1A01E02CE022E0F4
:1045F0000546F54015439840CA1AE10769181305A6
:10460000C918002ABBDA032040070818C10FC907E0
:104610000FE071466118B2E7F107400808437110D6
:1046200071444A000CD001235B059A42A7D2C90FFE
:10463000C9070020A3E74905490D26D1002001E064
:104640000028F4D100219AE7284D6600002801D007
:10465000012100E0002171185F00002A01D001262D
:1046600000E00026BE19224FA94210D8AE420ED853
:10467000B14208D001256D05E94206D01946A802CD
:10468000414010467BE79C4201D0214677E700205D
:10469000394674E710B50C465C4005D50124E407A3
:1046A0006340FFF70CFF10BDFFF778FE10BD30B47C
:1046B0000C465C4004D50124E407634030BC6DE641
:1046C00030BCFCE670B50124E40761400D465D4056
:1046D00002D4FFF763FE70BD6340FFF7F0FE70BDCC
:1046E000FF0700000000F0FF0000F07F0000E0FF87
:1046F0000000F87FF0B5F94D0C091E092C402E4042
:104700002F468BB0A7437DD0B543FCD0002E7AD086
:10471000002CFCD00D465D40ED0F2543AC1BFF2562
:10472000AD0464190894C502440DC9022143500D1B
:10473000DC0204430120C00701430443D20201917B
:10474000200C110C00958C46010423468B430A91E2
:1047500061460904E24D8A430991010A7D444919E1
:104760008039097805464D4301266D18F605751BFD
:104770006943C90C640B891C4C436418B5012C1B9C
:10478000250C2E04B4434C434D43210C6918890970
:104790000591009DE90701D00121C90704912C462C
:1047A00001996708CD072F434C08059DE10B4D4348
:1047B0002D0C29466646754302950D4645432E4607
:1047C000029D7D1BB44100950D465D4301942C0C68
:1047D0002F040D465543AE462D0C3D4302950394E0
:1047E0007546049C2D04641B049406D2029C039D10
:1047F000641C002675410395029401AC70CC009FA7
:104800007D1B01E03EE162E1B4410904009507919E
:1048100001940599A4086143090C0C464443650BB7
:10482000E7040C4666467443A646640B3C43039576
:1048300002947446049DE4042C1B049406D2029C4A
:10484000039D641C002675410395029401AC70CC55
:10485000009F7D1BB44101940C465C430095650F9D
:10486000E7000C465443A646640F3C43039502946C
:104870007446049DE4002C1B049406D2029C039D04
:10488000641C002675410395029401AC70CC009F16
:104890007D1BB441AE09AF06049DC900AD092F438D
:1048A000049DA406AD060495079D3443691807913D
:1048B000059DE10B4D432D0C294666467543029537
:1048C0000D4645432E46029D7D1BB44100950D4685
:1048D0005D4301942C0C2F040D465543AE462D0C20
:1048E0003D43029503947546049C2D04641B049477
:1048F00006D2029C039D641C002675410395029418
:1049000001AC70CC009F7D1BB44101948C050694D2
:10491000079C890A611800950791019C0599A408D4
:104920006143090C0D464543680BEF040D46644690
:1049300065436C0B3C43049FED047D1BAC4602D2E7
:104940000025641C6841009E019D371B8541084677
:10495000584301950C46460FC5005443600F284349
:104960006546E4002C1B02D20025401C6E41019DCF
:104970003F1AB5412846BD09800628438446A00950
:10498000BF064E020699A40676180743079D00202D
:1049900068410A99079019430020099B00906046DE
:1049A000FF1913434041E20F64003A43A446044612
:1049B000D71A8C41A04203D90120009020463A46E4
:1049C000C70F941840416246D20F224364466400E8
:1049D0000494009CBE466400D71AA446044602977D
:1049E0008C417746002F01D1A04204D96046401C7B
:1049F0008446029A2046C40FA64694184041049A61
:104A00000546D20F224364466400D31A8D41714695
:104A1000002901D1A84202D928461A46641C104335
:104A20000122002800D0164361020020079B89194B
:104A300004465C410223002C02DB49181346644102
:104A4000089DCE0A2D145D194B056705E10A2C055A
:104A50000D1908993E43C9076940002B08D09340BF
:104A600006D30022761C5141002B01D17608760036
:104A70001C4A002D43DB154241D0AA433FD03046AB
:104A80000BB0F0BD06180D464D41174C7642AC41B7
:104A90001AD395181C465C41134A6D42A24113D3A8
:104AA000012252054C00D4420AD15C00D4420BD002
:104AB0004B4002D592021143E2E749004908DFE783
:104AC0005940C90FC90718E000200849D8E7054830
:104AD00001420DD10342F7D0F2E700000000FF07CA
:104AE00048AB00000000F07F0000E0FF0000F87F0E
:104AF000114859400143C01241400020C0E7012342
:104B0000089A9B069A4205DC032252078918C90FAE
:104B1000C907B5E7052252078918074A1143D2127F
:104B20005140ADE770B515461C4602460B46284677
:104B30002146FFF7DFFD70BDFFFFFF7F30B5034665
:104B4000CA02400D1043164D164C0A1502D02043E0
:104B5000002A06DBAA1A002A12DDD040FF2A0BDC4D
:104B600030BD5205520D01D140004008AA1A07D4A9
:104B7000D0404042FF2A01DD002030BD0028FCDD8E
:104B80004A00002B01D0012000E000201018012273
:104B90005205D042F0D8C817C043604030BD000075
:104BA0001E040000000000800346CA02400D10B53C
:104BB00010430A1504D00124E4072043002A05DB32
:104BC0000A4CA21A04D4D040FF2A00DD002010BDF8
:104BD0004A00002B01D0012000E000201018012223
:104BE0005205D042F2D8C817C04310BD1E040000C1
:104BF0001F22030C02D10F22000402D0030E03D0A7
:104C000004E00020014670470002083A030F01D17A
:104C10000001121F830F01D18000921E002801DBCA
:104C20004000521E120551184205C012411810468C
:104C30007047C10FC90700D04042012292071143BB
:104C4000D6E701218907D3E7F0B58B4C0F0925463C
:104C500089B0BD437BD01D092646AE43FAD00E462F
:104C60005E402740F60F3E43254071D0240121428B
:104C7000FBD0FF24AD19A4042D1B039501252D05A0
:104C8000DB02DB0AC9022B43C90A29431E010901C1
:104C9000040F130F050121431701880B8203914371
:104CA0002D098C46A90B1E438A039543B30B9A0327
:104CB00096433F09BA0B9403A74302962E467E43C0
:104CC0000497B6464E19D7190C46019654430597DA
:104CD0007E43371B7646BF1B3601B646BE0B3619E0
:104CE00000967646BC043719009C01D3641C0094DE
:104CF0006400002F01D001263443029E049F7543B7
:104D000066467E430496760034196E00341900948A
:104D1000029C019E1C196643751BAE4606946546AF
:104D20004519059C05956C43594375460891691AC8
:104D30000191049E01465143A41B0491611A009CF9
:104D40000791E10605D061090122114302E072E0FA
:104D50006EE06109089D00272C0A2D066918049D44
:104D60007C412A0A2D066918019D6241AC0DAD02F5
:104D70006D185441079A910D920255196141029A9A
:104D8000644658435443069B059A5A43121A131B10
:104D90009A0E9B015B187A41010B0005C318514123
:104DA000220A200644195A419A4200D2491C012085
:104DB0004002814203D315230226F64302E0142366
:104DC0000326F6432020C51AA9401746AF40DA4013
:104DD0000A4320460399D84009147318190551183D
:104DE000039A3843D2075140AC4009D00122944085
:104DF00006D30022401C5141002C01D14008400044
:104E00001E4A934212D3012203989206904207DB76
:104E10000520400709181A480143C012414004E028
:104E2000032040070818C10FC907002009B0F0BDD2
:104E30000020F107FAE705180C464C4111486D4275
:104E4000A04115D394181A465A410E486442904125
:104E50000ED301204A004005824209D35A00824203
:104E600006D35940C90F084AC90700201143DDE79E
:104E700000200649DAE700000000FF07FE070000F7
:104E8000FFFFFF7F0000E0FF0000F07F0000F87FE1
:104E900010B500F001F9006810BD10B5044600F02F
:104EA000FBF8046010BD0000F8B5224C4E00069DD2
:104EB000A6420AD8A64201D1002806D15E00A64229
:104EC00003D8A6420AD1002A08D00D242404254282
:104ED0002CD02946002000F0E3F8F8BD0C461C4316
:104EE0000CD4994202D0EFF30080F8BD904202D07A
:104EF000EFF30080F8BDEFF30080F8BD092424072C
:104F0000E5008B4206D0EFF30080A043591A06D289
:104F1000284304E0101A05D3EFF30080A04380F388
:104F20000088F8BDEFF30080A043F1E7009500F0A2
:104F3000CFF8F8BD0000E0FF70B505464800440D0D
:104F4000124B0020002C0AD0634008D09A4206DAA7
:104F50006642B24203DD12054019514170BD002C7A
:104F600008D0002B09D0C90FC907002AF6DB084A70
:104F7000114370BDC90FC90770BD28460A0310430D
:104F800002D00020034970BD284670BDFF07000015
:104F90000000F07F0000F87FF0B53D4B02460C4664
:104FA0001C400020002C63D03A4D8B4366D0002972
:104FB0006BDB0B0D1D05A94301252D05294301249C
:104FC000FD33E34001D392184941FF3381339C46BE
:104FD0008B02940D0121234389074C429202002742
:104FE0001B198C105D1A04D42D1B02D42B466500AE
:104FF000491992185B416408F4D15C1A08D4012560
:10500000ED07EE175519744102D42A462346491C70
:1050100094185B41012292071D46E61B8D4106D480
:10502000B61A854103D42B46550034467F192419FE
:105030005B415208802AEFD1234300D00223384637
:105040000A22D04001D3012213438A05104362464D
:10505000890A12058918002B09D00122D34002D3F6
:105060000022401C5141002B01D140084000F0BDFE
:105070000B03134307D0C90FC907F0BD0803104342
:1050800003D1002901DB1046F0BD00202946F0BD08
:105090000000F07F0000F87F0048704700280020E3
:1050A000C80212D54803400F002804D0C803C043EB
:1050B000012188407047EFF30080000100090321BF
:1050C0000907084380F300887047002070470000FC
:1050D00010B500200249029A00F02FF810BD000020
:1050E0000000F87F00487047002800207546FFF751
:1050F000F9FFAE46050069465346C008C000854624
:1051000018B020B5FFF746F860BC00274908B6463E
:105110000026C0C5C0C5C0C5C0C5C0C5C0C5C0C5C6
:10512000C0C5403D49008D46704710B50446C04695
:10513000C0462046FFF701F810BD10B50C46110718
:10514000090F092904D00A290AD008290CD104E042
:1051500011460820FFF7A4FF06E0510606D501E03E
:10516000510601D50120C007214610BDD10607D543
:1051700001010909CC084907000E0006044309E0B3
:10518000410F20024907000A0143200E00061D229C
:10519000D14101430846E7E701491820ABBEFEE7CD
:1051A00026000200704770B58C180578401C6B070C
:1051B0005B0F01D10378401C2A1106D10278401CF4
:1051C00003E00678401C0E70491C5B1EF9D12B07CA
:1051D00005D40023521E0DD40B70491CFAE7037846
:1051E000401CCB1A921C03E01D780D70491C5B1CFF
:1051F000521EF9D5A142D8D3002070BD10B50B4680
:105200000021846A1C43846200BF0C46144321467B
:10521000416110BD002904D0826801231A438260D5
:1052200003E0826802231A438260704730B501466A
:105230000020002200238C680125ED072C438C60A0
:1052400000BF8C68E30FDB07521C0F242403A2422B
:1052500001D0002BF5D18C68E40FE407002C01D1BC
:10526000086C00E0002030BD0146086C80B2704739
:1052700030B5024600200023012424060C40002CF7
:1052800005D0946801252D06AC43234600E0136841
:105290001C460C40002C01D0012000E0002030BD55
:1052A000816804221143816070470021016001710F
:1052B0008160C16001614161704700007CB50026DA
:1052C000002000907EE16846808805072D0F002DA4
:1052D0007ED16846808810210840002816D1BF483A
:1052E0000068BF490840BD490860BE4C207800F006
:1052F00065FEA061A169206940182061BA48006874
:10530000002142682046203890475BE1B54C50347C
:10531000B248006881B20091684600880121C90244
:10532000084000281AD0207800F036FEA061208BBB
:1053300082B2A1882046583800F054FFA748006880
:105340004004400CA64980310840A4490860A648A2
:105350000068816820467038884733E168460088D5
:105360000121C90308400028ACD09C4800684004D3
:10537000400C9B498031084098490860207800F033
:105380000BFEA061A069002809D0238B9AB2A188E6
:10539000206900F027FFA169206940182061924828
:1053A0000068002102688F48203890478B484030C1
:1053B000006980B2801D8D4A8118E2683E2A11D9A9
:1053C000E268D202100C227BD206D20E002A00E044
:1053D00026E001D1421E90B282020123DB031A4370
:1053E0000A800CE0E268D203100C227BD207D20FB5
:1053F000002A01D0421C90B28206120C0A80774922
:1054000009687B4A114008460121090348404900C8
:1054100048408900014380221143704A1160D1E065
:10542000A8006E494018006881B200916846008863
:105430000121C903084000285FD0A800674940182F
:1054400000684004400C664980310840A900634A66
:105450008918086028206843624950314418A07AAE
:1054600000280BD1207800F097FD0646002E28D0AA
:10547000A1883246206900F0B5FE22E0207800F0D5
:105480005DFD01218903084000280BD0207800F041
:105490005FFD0646002E10D0E1883246206900F0FC
:1054A000A1FE0AE0207800F065FD0646002E04D03B
:1054B00021893246206900F095FE2078002100F015
:1054C000A1FCA0698019A061206980192061606930
:1054D000002802D0E068B04207D92178424800682D
:1054E000026840482038904707E0A08A83B22178BC
:1054F0003C482038226900F0F3F968460088802192
:10550000084000285ED02820684336494418A80087
:1055100032494018006832490840A9002F4A8918CA
:105520000860A07A00280DD1207800F047FDA06126
:10553000A06900282CD0238B9AB2A188206902F0A0
:1055400061FF25E0207800F0F9FC402108400028A8
:105550000DD0207800F0FCFCA061A069002813D0D9
:10556000238B9AB2E188206902F04CFF0CE020788E
:1055700000F000FDA061A069002805D0238B9AB23D
:105580002189206902F03EFF2078012100F03AFCD9
:10559000207800F013FDA061A16920694018206106
:1055A0006069002807D121780F48006842680D48DB
:1055B0002038904706E021780A482038636922693C
:1055C00000F036FA05484030406880B20190012171
:1055D000C9030840002800D075E67CBD005C00408F
:1055E0000F8F00002C0E0020FC0000200060004007
:1055F0008FBF00000246002003E0535C4B431818A5
:10560000491E0029F9D100BF7047000081000A4AF5
:10561000891809681214114000290BD08100064A2C
:1056200089180968054A1140054A11438200024B56
:10563000D218116070470000005C00408F8F00009E
:1056400080C0000081000A4A891809684022114080
:1056500000290BD08100064A89180968054A1140C3
:10566000054A11438200024BD218116070470000B6
:10567000005C00408F8F0000C080000004498969F1
:105680000122D2031143024A9161012181707047C6
:10569000405C004070B506460D46802028408028BA
:1056A00007D16806400E282148433146203144186E
:1056B00006E06806400E2821484331467031441800
:1056C000A07A002812D16078002807D02078FFF750
:1056D000B9FF2078002101F05FF92DE02078FFF775
:1056E00095FF2078002101F013F925E0607800286B
:1056F00011D12078FFF78AFF2078FFF7A3FF2078E9
:1057000001F014FE2078002101F002F92078002138
:1057100001F042F910E02078FFF778FF2078FFF7DA
:1057200091FF207801F0EEFD2078002101F034F99E
:105730002078002101F0ECF8002070BD70B506461D
:105740000D4680202840802807D16806400E282179
:10575000484331462031441804E02820684331464C
:10576000703144186078002809D02078FFF76AFF6C
:105770002078302101F010F90020A07009E0207895
:10578000FFF744FF20780321090301F0C1F800204E
:10579000A070002070BDFFB581B006460D461746CB
:1057A00080202840802809D16806400E28214843DF
:1057B0003146203144180120607008E06806400E30
:1057C0002821484331467031441800206070E7605A
:1057D0000498E0706806400E20702078002802D1FE
:1057E0006062E0612062002020616061A061A070C1
:1057F000E078002806D0012815D0022808D0032818
:1058000017D10AE020780121490201F0E7F810E001
:105810002078002101F0E2F80BE020780321490212
:1058200001F0DCF805E020780121890201F0D6F8CA
:1058300000BF00BFA07A002820D1607800280BD0DC
:10584000A188207801F08AF82078FFF7FBFE207805
:10585000202101F0A1F840E0A188207801F01EF895
:10586000A28991B2207801F02BF82078FFF7CEFEC4
:1058700020780321090301F04BF82EE0207800F096
:10588000F7FF2289E188207800F070FF6078002817
:1058900012D12078FFF7BAFE2078FFF7D3FE2078E8
:1058A00001F044FD20780321090301F031F820784C
:1058B000002101F071F810E02078FFF7A7FE2078B2
:1058C000FFF7C0FE207801F01DFD2078002101F0D7
:1058D00063F82078002101F01BF8002005B0F0BD2E
:1058E000FFB581B005460E461746002000907006B1
:1058F000400E2821484329467031441827610498F6
:1059000060610020A061E1686069884206D9E068B2
:10591000009060690099401A606103E0606900903E
:1059200000206061A07A002805D1009A91B2207809
:1059300000F0C6FF05E0009B9AB26178207800F085
:1059400031FF20780321090300F0E2FF002005B0B9
:10595000F0BD000030B502460020117100BF10E01C
:1059600003069B0D0B4C1B191B680B4C23400B4C67
:105970002343C4B223430406A40D064D64192360D7
:10598000401C0228ECD380230B43024C4034E360DC
:1059900030BD0000005C00408F8F00008080000060
:1059A00070B506460D4680202840802807D168063D
:1059B000400E2821484331462031441804E0282075
:1059C00068433146703144182078002819D1217875
:1059D0008900154A89180968144A114008460121AE
:1059E0000903484010214840C90201438022114365
:1059F000227892000C4BD21811600120A070002078
:105A000070BD6078002806D00120A0702078102199
:105A100000F0C2FF06E00120A070207801210903F8
:105A200000F076FF0020EBE7005C0040BFBF000005
:105A3000FFB583B006460D46174600200290680663
:105A4000400E282148433146203144186806400E54
:105A500020702761069860610020A061E16860699C
:105A6000884206D9E068029060690299401A606134
:105A700003E06069029000206061A07A00280BD1E9
:105A8000029B9AB2A188206902F0BCFC029A91B2F2
:105A9000207800F073FF1EE000200190029B9AB274
:105AA0006178207800F07EFE207800F047FA4021EF
:105AB0000840002802D02089019001E0E088019090
:105AC00002998AB22069019902F09CFC61782078E1
:105AD00000F098F900BF2078302100F05DFF002031
:105AE00007B0F0BD10B504460120A0700020207161
:105AF0000120206100F034FE002000F031FE002083
:105B000000F07EFF002000F021FEBF2000020349CC
:105B10000860098888B200F023FE10BDD400002080
:105B200070B505460C4680202040802807D16006CD
:105B3000400E282670432E462036811906E0600666
:105B4000400E282670432E4670368119002A03D154
:105B5000002088728B8004E001208872CB80180CB2
:105B60000881002070BD00007CB506463046FFF776
:105B700060F80446074A084BFFF766F80191009069
:105B800001990098FEF7DAFF064600E0761E002E27
:105B9000FCD17CBDCDCCCCCCCCCC1A4001B581B0F5
:105BA0000020009006E07D20C00000F008F8019879
:105BB000401E0190019900988842F4D30CBD01B5B4
:105BC00082B07D20C00000900020019009E002E03A
:105BD0000098401E009000980028F9D10298401EBD
:105BE0000290029901988842F1D30EBD10B50320AE
:105BF00000F058F810BD000010B525484069FF219D
:105C000001310840002824D022490888C10F091812
:105C100049104900411A08D00120800204F016FB07
:105C20000120400304F00CFB03E00120800204F09B
:105C300007FB18480088401C164908800846008861
:105C4000052801DD0020088013480078401C124917
:105C500008700F48406901214902084000280BD014
:105C60000E48008A0840002803D033200C49887170
:105C700002E055200A4988714620FFF78FFFFF2078
:105C8000013000F00FF80120400200F00BF810BDC9
:105C9000000401409C050020CC05002000040048C1
:105CA000C808002001494861704700000004014015
:105CB00030B5044604250B20000400F08FF805469B
:105CC000042D17D10C480069022108430A490861D4
:105CD00008464461006940210843074908610B20D8
:105CE000000400F07BF80546034800690221884360
:105CF00001490861284630BD0020024004200D49BA
:105D0000C968C907C90F002901D0012010E009495D
:105D1000C96810221140002901D0022008E005497D
:105D2000C96804221140002901D0032000E00420AA
:105D300070470000002002400348006980210843AA
:105D400001490861704700000020024078B506460E
:105D50000C460425002000900B20000400F03EF8C3
:105D60000546042D24D11348006901210843114937
:105D7000086134800B20000400F030F80546042D43
:105D800010D1B01C0090200C009908800B2000045A
:105D900000F024F80546074800694008400005491E
:105DA000086105E0034800694008400001490861B6
:105DB000284678BD0020024005480069802108403F
:105DC000002804D0034802494860034848607047EF
:105DD0000020024023016745AB89EFCD10B5034693
:105DE0000424FFF78BFF044603E0FFF787FF044618
:105DF0005B1E012C01D1002BF7D1002B00D1052413
:105E0000204610BD10B500290CD182000D4BD218D0
:105E100012680D4B1A400D4B1A438300094C1B1995
:105E20001A600DE001290BD18200064BD2181268CE
:105E3000054B1A40064B1A438300024C1B191A608B
:105E400010BD0000005C00408F8F0000C08000008B
:105E500080C00000F0B50A4600210023002400BFE6
:105E60003DE001258D402B4615681D402C469C4287
:105E700034D11579012D02D01579022D16D18568FE
:105E80004F000326BE40B543856055794E00B540AE
:105E9000866835438560858801268E40B5438580B8
:105EA000858896798E40B6B23543858005684F0067
:105EB0000326BE40B543056015794E00B54006681F
:105EC00035430560C5684F000326BE40B543C56035
:105ED000D5794E00B540C6683543C560491C1029C8
:105EE000BFD3F0BDF0B5002300244D07EE0E1546DC
:105EF000B5402B46CD10AE0005462035AD594E07B6
:105F0000F70E0F26BE40B543CE10B6000746203729
:105F1000BD51CD10AE003D46AD591D432C46CD10B0
:105F2000AD003E467451F0BD02460020138A0B407E
:105F3000002B01D0012000E00020704701468800BE
:105F4000024A8018006880B270470000005C004080
:105F500001460648006980B2CA008018801C044AC5
:105F6000801800888005800D70470000405C00406C
:105F70000060004001460648006980B2CA008018EF
:105F8000801D044A801800888005800D704700003D
:105F9000405C00400060004001460648006980B255
:105FA000CA008018801D044A801800888005800D72
:105FB00070470000405C0040006000400146064819
:105FC000006980B2CA008018801C044A80180088CA
:105FD0008005800D70470000405C0040006000407C
:105FE00070B50948C46A056B466BA419002C0AD029
:105FF00008220649204600F043F8042203491031E4
:10600000284600F03DF870BD80F7FF1F56060020BF
:1060100013E00920C006808A012149034840092174
:10602000C90688820846808A0121890248400921E0
:10603000C9068882C820FFF7B1FDEAE70148024996
:1060400008607047CCCC0000003000400148024995
:1060500008607047AAAA000000300040014948606B
:106060007047000000300040014988607047000020
:1060700000300040014908607047000000300040D7
:1060800030B50B46002100BF12E0040F0A2C04D2E9
:10609000040F30344D005C5503E0040F37344D00DD
:1060A0005C55000100254C00641C1D554C1CE1B2E0
:1060B0009142EADB30BD7047C206D20E0121914009
:1060C000014A11607047000000E100E0C206D20EF4
:1060D00001219140014A11607047000000E100E099
:1060E00000218278002A27D0184A03231B02D218E5
:1060F00003789B109B00D15802789207D30EFF22A1
:106100009A400B469343194642789207120E037841
:106110009B07DB0E9A4011430C4A03231B02D21843
:1061200003789B109B00D1500278D306DB0E01222E
:106130009A40064B1A6007E00278D306DB0E012274
:106140009A40024B80331A607047000000E100E083
:1061500010B5002819DA1A4A03071B0F083B9B08E1
:106160009B00D2588307DC0EFF23A3409A438B0782
:106170001B0E8407E40EA3401A43114B0407240F9F
:10618000083CA408A4001A5118E00E4A03231B027D
:10619000D21883089B00D2588307DC0EFF23A3404C
:1061A0009A438B071B0E8407E40EA3401A43054B4A
:1061B000032424021B198408A4001A5110BD0000F6
:1061C0001CED00E000E100E0BFF34F8F03480449FD
:1061D000C860BFF34F8F00BFFEE700000400FA0560
:1061E00000ED00E070B5561C7510064E8C192B465C
:1061F00005E026880680A41C401C401C5B1E002B6A
:10620000F7D170BD0060004070470000002905D044
:10621000054A52690243044B5A6104E0024A52693A
:106220008243014B5A61704700100240002905D09B
:10623000054AD2690243044BDA6104E0024AD2699A
:106240008243014BDA61704700100240002905D0FB
:10625000054A92690243044B9A6104E0024A92693A
:106260008243014B9A61704700100240002905D01B
:10627000054AD2680243044BDA6004E0024AD2685D
:106280008243014BDA60704700100240FEB50446BD
:106290000025002600200290019000900027704801
:1062A00040680C2108400546002D06D0042D07D07B
:1062B000082D08D00C2D2CD128E06A4820602BE056
:1062C0006848206028E0664840680F21890408403B
:1062D0000646634840680321C90308400290B00C99
:1062E000861C0298002803D15F48374647430BE0DD
:1062F0005B48C06A0007000F401C01905948019993
:10630000FDF79CFF70430746276005E05748206073
:1063100002E05448206000BF00BF51484068F021AF
:10632000084005462D095248405D009021680098BC
:10633000C14061604A48406807210902084005469B
:106340002D0A4B48405D009061680098C140A160F3
:106350004348006BFF2101310840884202D0454884
:10636000E0600DE03E484068012189030840884212
:1063700003D0A0684008E06002E0A0688008E06008
:106380003748006B40210840402802D03A4820613D
:1063900002E00120C00320613148006B1021084059
:1063A000102802D02F48606101E0206860612C480D
:1063B000006B8007800F002802D1A068A06119E05F
:1063C0002748006B8007800F012802D12068A06158
:1063D00010E02348006B8007800F022802D1800361
:1063E000A06107E01E48006B8007800F032801D1E1
:1063F0001C48A0611A48006B0321090408400028CA
:1064000002D1A068E06120E01548006B0321090477
:10641000084001210904884202D12068E06114E0AB
:106420000F48006B032109040840012149048842F8
:1064300002D18010E06108E00948006B03210904E3
:106440000840884201D10748E0610548006B80217F
:106450000840802802D00548206200E02762FEBD87
:106460000010024000127A0000093D00006CDC02BE
:10647000C4000020809FD5001280000010B50246A5
:106480000021002300205111002902D10C4C236867
:106490000BE0012902D10A4C236A06E0022902D14D
:1064A000074C636A01E0064C636BD106C90E0124F8
:1064B0008C401C40002C01D0012000E0002010BDC9
:1064C00000100240002806D00649496A0122114303
:1064D000044A516205E00349496A49084900014AF2
:1064E00051627047001002400549096B80229143B8
:1064F000034A11631146096B0143116370470000A1
:106500000010024010B5FFF757FC0348FFF7D0FB1F
:10651000FFF712FC10BD00000038000838B5054632
:1065200000200090072D01D02F4805702E480078DC
:10653000030001F07DFF0805121A202C3952535137
:106540000098002805D100F053F80620264908706D
:1065500002E005202449087044E000F049F80420D6
:1065600021490870012000903CE002201E4948703B
:106570000320087036E01C484078401E1A494870D5
:1065800008464078002801D1042008702AE0174806
:10659000006884B2102004431448046005201249A6
:1065A00008700A2048701DE00F484078401E0E49D0
:1065B00048700846407800280DD10C48006884B225
:1065C00010212046884304460848046006200649F6
:1065D00008700020009005E000BF00BF06200249BF
:1065E000087000BF00BF38BD6E060020405C004050
:1065F0000649096888B204220146914308460349C6
:106600000860BF210902014A11607047405C0040E8
:106610007CB504460D46A1002A4A5158A2002A4BD7
:106620009A58114308460121FFF7F0FD002C03D1D1
:1066300001218803FFF70AFE012C03D10121480440
:10664000FFF7F4FD6300214EF25C6300204EF15A27
:10665000A300204EF058FFF745FC63001E4EF25C8D
:1066600063001E4EF15AA3001D4EF058FFF73AFC8E
:1066700060001C49085A00900221684601710321FC
:106680004171002181710121C171A100114A50584D
:106690006946FFF7DFFB60001349085A0090A1002C
:1066A000324650586946FFF7D5FBA1000F4A5058B3
:1066B000294600F0C7FEA1000C4A5058012100F005
:1066C000ABFE7CBD00F2000808F2000820F20008D2
:1066D00018F20008E005002024F200081CF200086F
:1066E000E805002010F2000814F20008D805002088
:1066F0007047000001460020044A106880088000AE
:1067000002460A431046014A1060704700000140EB
:1067100010B5044621460648006800F00CFF00BF93
:1067200080210348006800F083FE0028F8D010BDE7
:10673000D405002010B5044603E02078FFF7E8FFF9
:10674000641C20780028F8D110BD000002490140E7
:10675000024A116170470000F8FF0000405C0040F1
:106760000149086070470000405C004030B54B10A4
:106770005B000A4C2469A4B2C5006419084D641971
:10678000238053105C00054B1B699BB2C5005B194D
:106790001B1D034D5B191C8030BD0000405C004098
:1067A0000060004070B50346002921D12E480069E1
:1067B00080B2DD004019801C2C4D44193E2A0CDDAE
:1067C0005011D506ED0E002D01D1451EA8B285024F
:1067D0000126F6033543258009E05010D507ED0F5B
:1067E000002D01D0451CA8B285062D0C25800AE09D
:1067F000012908D11C48006980B2DC000019801C06
:106800001A4C00190280002921D11748006980B272
:10681000DD004019801D154D44193E2A0CDD501134
:10682000D506ED0E002D01D1451EA8B28502012628
:10683000F6033543258009E05010D507ED0F002DF4
:1068400001D0451CA8B285062D0C25800AE001293F
:1068500008D10548006980B2DC000019801D034C96
:106860000019028070BD0000405C004000600040E4
:106870008100074A8918096892151143054A114099
:10688000054A11438200024BD21811607047000084
:10689000005C00408F8F00008080000010B54A101F
:1068A0005300054A126992B2C4001219121D034C1A
:1068B0001219138010BD0000405C004000600040D1
:1068C00030B502461048006980B2D4000019801D1E
:1068D0000E4C03193E290CDD4811CC06E40E002CA9
:1068E00001D1441EA0B284020125ED032C431C807B
:1068F00009E04810CC07E40F002C01D0441CA0B2E2
:106900008406240C1C8030BD405C004000600040C8
:1069100030B583000F4C1B191B680F4C23401A46DF
:1069200001231B030B40002B02D001231B035A4001
:1069300001235B030B40002B02D001235B035A4071
:106940000123DB031343802423438400014D641996
:10695000236030BD005C00408FBF000010B54A10BE
:106960005200044B1B699BB2C4001B19024C1B193B
:106970001A8010BD405C004000600040044A12696B
:1069800092B2C300D218921C024BD21811807047E9
:10699000405C00400060004030B583000D4C1B1986
:1069A0001B680D4C23401A4610230B40002B01D0CE
:1069B00010235A4020230B40002B01D020235A40A3
:1069C0000123DB031343802423438400014D641916
:1069D000236030BD005C0040BF8F000010B5820016
:1069E000054BD2181268054B1A400A438300024C2B
:1069F0001B191A6010BD0000005C00408F89000068
:106A00000149486070470000405C00400CB5002020
:106A100001900090112031490860314840683049A8
:106A2000486008464068486008460068012109043B
:106A300008432B49086000BF294800680121490428
:106A4000084000900198401C01900098002804D153
:106A50000521090301988842EED1214800680121EF
:106A600049040840002802D00120009001E00020E5
:106A70000090009801280DD1194840687F21C90372
:106A800088431749486008464068112109040843B3
:106A9000134948601248006801210906084310495B
:106AA000086000BF0E480068012149060840002820
:106AB000F8D00B48406880088000094948600846C3
:106AC0004068022108430649486000BF0448406806
:106AD0000C2108400828F9D10CBD0000002002401C
:106AE000001002400649096888B208210843044999
:106AF0000860096888B204210843014908607047AA
:106B0000405C00407047000010B51B480068012140
:106B10000843194908600846406818490840164962
:106B2000486008460068164908401349086008464E
:106B300000680121890488430F49086008464068BD
:106B40007F21C90388430C4948600846C06A000990
:106B50000001C8620846006BFF2154318843064992
:106B600008630846406B0749084003494863002012
:106B70008860FFF74BFF10BD001002400CB8FF808B
:106B8000FFFFF6FEFEFFFEFF70B50920C006808AFB
:106B90000121890248400921C90688820025002672
:106BA00069480078002834D16848008A802108406C
:106BB000C011002806D16548008A4900084000122B
:106BC00000280BD00021624800F026FA002061491D
:106BD00008806148007807F0E7FEACE05D48008877
:106BE000401C5C490880084600880F28F5DD01201C
:106BF00055490870002406E000221146204600F0A6
:106C000077FA601CC4B2042CF6DB002051490880DE
:106C100091E050480088401C4E4908804B48008A4B
:106C200080210840C01100281DD14848008A490031
:106C300008400012002816D148480078401C4749F7
:106C4000087008460078082801DD0120087000203F
:106C5000404908804148007802F05AFA05464B2026
:106C60000001FEF79BFF3D48007802F051FA05460F
:106C7000032138480088FDF7EBFA002905D02946A2
:106C80003648007801F004FE1CE03048008A80217C
:106C90000840C011002815D02C48008A490008403F
:106CA000001200280ED0002406E0002211462046E3
:106CB00000F01EFA601CC4B2042CF6DBFF202D305D
:106CC000FEF76CFF23480088142834DD002021499A
:106CD00008801D49087000221146104600F008FA8D
:106CE00008201E4908701E480078002823D01D483F
:106CF000017B0022082006F087FD1A48407B1949D5
:106D0000098A09020843064600223146092006F096
:106D10007BFD15480078002805D0002239210E207F
:106D200006F072FD04E0002240210E2006F06CFD0A
:106D300000200B4908700121054800F069F9012184
:106D4000034800F069F970BDAA050020000400485E
:106D500000440140A8050020CD050020CE050020FC
:106D6000D2050020C80800207C01002010B56D4825
:106D70000078002811D16C480088401C6A490880BE
:106D80000846008878280BDD00200880012067492C
:106D90000870400303F054FA02E0002062490880C2
:106DA00063480078002808D062480078002804D1A1
:106DB00061480078401C604908705F4800780228EC
:106DC00007DD00205C4908705949087001205B49C3
:106DD00008705B480078401C5949087059480068A1
:106DE000401C5849086058480068401C56490860D3
:106DF000544800685549884207DD00205149086021
:106E0000534908804880504908604E4800685149FD
:106E1000884202D1012050490870494800783C2836
:106E200026D100204649087049488079332804D18A
:106E300047480088401C4649088045484079552805
:106E400004D143484088401C41494880404800885C
:106E50002D214901884202DD00203D4908803C483F
:106E600040882D214901884202DD002038494880B0
:106E7000334800782D280AD138480078002802D1FC
:106E800001203749087001203449087002E00020D1
:106E9000324908702E48807B55281FD12948006848
:106EA00030490968884209D12948007B2849897CF2
:106EB000401A2749087301202B49087021480068AF
:106EC0002A490968884209D12148007B2049897CE8
:106ED00040181F490873022023490870FF2101311F
:106EE0000920C006FFF720F8002803D00020204921
:106EF000087004E01E480078401C1D4908701C48BA
:106F00000078052809DD0020194908700120400398
:106F100003F09CF90120174908700121880700F04F
:106F200077F810BDBC060020A6060020BD06002094
:106F3000B4060020B3060020BE050020B5060020E0
:106F40009E050020AC050020B00500207F51010007
:106F5000C8080020284F010082010020A60500205B
:106F6000A5050020B405002042010020B80500203E
:106F70009F050020A405002010B50920C006808AC6
:106F80000121890248400921C906888214480088E5
:106F9000401C1349088008460088782810DD1148F5
:106FA0000089102108430F4908810F4800890421F6
:106FB00008430D490881C820FEF7F0FDFFF704F9EA
:106FC000FFF744F809480078022801DDFFF7FCF8D4
:106FD0000020064908700121054800F019F810BD8D
:106FE000CA0500202000004820040048CC050020ED
:106FF00000040040002904D0028880231A43028044
:1070000003E00288014B1A40028070477FFF0000B6
:10701000CA43028270470000002904D0028801237D
:107020001A43028003E00288014B1A400280704735
:10703000FEFF0000002A03D083890B43838102E016
:1070400083898B438381704700220288154B9842C5
:1070500006D001239B07984202D0134B984203D1DC
:10706000124B1A404B881A43114B984203D0114BD4
:107070001A400B891A4302804B68C3620B88038550
:10708000084B984208D00C4B984205D00B4B9842C5
:1070900002D00B4B984201D18B7A03860123838265
:1070A00070470000002C0140000400408FFF0000EA
:1070B00000100040FFFC000000400140004401407F
:1070C000004801400021C943416000210180018145
:1070D00041808172704710B5032406E0E0B20022BF
:1070E000114600F005F8601E44B2002CF6DA10BD1F
:1070F00070B505460C461646012E02D18020044389
:1071000002E06406640E00BF00BF442000F02EF8C9
:1071100000F036F8A907890FC0221143084600F095
:1071200075F8204600F072F800F046F870BD0000D7
:107130001CB50C484069012189040843094948618C
:1071400018200090012168460171032141716946B0
:107150000548FEF77FFE8F2000F008F8FFF7BBFF21
:107160001CBD0000001002400004004810B5044699
:1071700000F006F8204600F049F800F01DF810BDB8
:1071800010B50C488069102108430A4988610846F7
:10719000806908210843074988610420FEF70FFD34
:1071A0000448203000891021084302492031088119
:1071B00010BD00000004004810B5134800890821E4
:1071C0000843114908810420FEF7F9FC0E480089A4
:1071D000102108430C4908810420FEF7F0FC0A48FE
:1071E0002038806908210843074920398861042034
:1071F000FEF7E5FC04482038806910210843024965
:107200002039886110BD0000200400487CB5044688
:107210000825002629E03A48008908210843384912
:1072200008810420FEF7CBFCE007C00F002808D03F
:10723000334820388069102108433149203988615A
:1072400005E02F480089102108432D4908812C486A
:1072500020388069082108432949203988610420A1
:10726000FEF7ADFC6410681EC5B2002DD3D12448D2
:10727000008908210843224908811020009000213C
:1072800068460171C17169460920C006FEF7E2FD3A
:107290000420FEF794FC1A482038008A1021084088
:1072A0000611102000900121684601710021C17172
:1072B0000321417169460920C006FEF7CBFD002E6F
:1072C00005D00F480089102108430D49088104208A
:1072D000FEF775FC0A4820388069082108430849F0
:1072E000203988610420FEF76AFC054800890821DE
:1072F0000843034908810420FEF761FC30467CBD49
:10730000200400488100064A89180968054A11408E
:10731000054A11438200024BD218116070470000E9
:10732000005C00408F8F000080C000008100064A92
:1073300089180968054A1140054A11438200024B29
:10734000D218116070470000005C00408F8F000071
:10735000C080000010B528480078002802D1012024
:10736000254908700020254908702548006820211B
:107370000840002835D0224800F0D8F8C4B221488F
:107380002149096844542048008881B2204605F00C
:1073900077FF1D480068401C1B4908601B481C49BA
:1073A000097844541A480078401C19490870084666
:1073B0000078022815D1154800784F280AD11348C3
:1073C00040784B2806D1012012490870002010494E
:1073D000087006E00D4840780C49087001200C49FF
:1073E000087009480068FF219131884202D90020C5
:1073F0000549086010BD0000B4060020BE0500204D
:1074000000440040FC0E0020C4050020BF05002001
:10741000C8050020B2060020002904D0026801231C
:107420001A43026003E0026852085200026070478B
:1074300002460020D3690B40002B01D0012000E060
:1074400000207047F0B58BB004460D4600270020A1
:107450000A900026206840084000206066680321EA
:107460000903304688430646A868064366602668D6
:107470002A480640E96868680843296908430643C2
:107480002660A668032109023046884306466869DB
:107490000643A66001A8FEF7F9FE2148844202D106
:1074A00007980A9007E01F48844202D108980A9082
:1074B00001E003980A9020680121C90308400028D0
:1074C0000CD029680A9A5000FCF7B8FE07462968D4
:1074D0000A9A5000FCF7B2FE0E4609E029680A98A5
:1074E000FCF7ACFE074629680A98FCF7A7FE0E4693
:1074F00028684008B04200D87F1C20680121C903D9
:107500000840002806D03807460F3846064908408C
:1075100030430746A7810BB0F0BD0000F3E9FFFF41
:107520000038014000440040F0FF00000146888C14
:10753000C005C00D7047CA05D20D0285704770B5F1
:1075400004460D46C020005929464268204690470F
:10755000002070BD70B504460D46A078022802D008
:10756000032810D100E000BF688801280AD100205C
:10757000A060C020005929468268204690472046D6
:1075800000F05BF804E02946204600F01DF800BF3B
:1075900000BF70BDF8B506460C46154600272B46C1
:1075A000224600213046FEF79BF93846F8BDF8B573
:1075B00006460C46154600272B462246002130463B
:1075C000FEF736FA3846F8BD70B504460D46002180
:1075D0002046FEF7E5F970BDF8B504460E4615469F
:1075E0000027902005518C200551032060702B4608
:1075F000324600212046FEF773F93846F8BD70B5D3
:10760000044600250520607000231A4619462046CE
:10761000FEF766F9284670BDF8B504460E461546D5
:1076200000272564E563022060702B463246002166
:107630002046FEF7FDF93846F8BD70B50446002532
:107640000420607000231A4619462046FEF7F0F920
:10765000284670BD70B505460E46002E4AD12C4610
:1076600020346878022835D1E168E06988420AD977
:10767000E168E069401AE061A08B82B22846216986
:10768000FFF795FF44E0E168206AFCF7D7FD002989
:107690000FD1E168206A88420BD3616A206A884270
:1076A00007D2002211462846FFF781FF00206062C2
:1076B0002EE0C0204059C068002807D0A8780328D1
:1076C00004D1C0204059C168284688472846FFF7A2
:1076D00096FF1DE0687804281AD10E48006800283B
:1076E00016D00C4801782846FEF734F900200949E5
:1076F00008600DE0C02040594069002808D0A878F3
:10770000032805D1C0204059314642692846904798
:10771000002070BD0001002070B505460E46002E09
:107720002AD12C4670346878032833D1E168E069A7
:10773000884210D9E168E069401AE061E368E069D5
:10774000984201D2E06900E0E06882B228462169EF
:10775000FFF720FF1EE0C02040590069002807D035
:10776000A878032804D1C0204059016928468847D9
:107770002846FFF762FF0DE0C020405980690028CD
:1077800008D0A878032805D1C02040593146826925
:1077900028469047002070BD01460020704738B54C
:1077A00004460D4600200090E888012804D02946B0
:1077B0002046FFF709FF17E0A078022802D003282F
:1077C0000CD105E0012269462046FFF725FF0AE0BB
:1077D000012221462046FFF71FFF04E029462046EC
:1077E000FFF7F2FE00BF00BF38BDF8B504460E46F5
:1077F00070880012030000F01BFE086505121C656E
:10780000655B6065207CC82109590A686946904714
:107810000546F088402801D10820009057E0207CE0
:10782000C02109590A6A694690470546CC210D5185
:107830004DE0B078030000F0FBFD06040C141C249E
:107840002C34207CC82109594A686946904705466E
:107850002CE0207CC82109598A6869469047054672
:1078600024E0207CC8210959CA686946904705462A
:107870001CE0207CC82109590A69694690470546E1
:1078800014E0207CC82109594A6969469047054699
:107890000CE0207CC82109598A6969469047054651
:1078A00004E031462046FFF78FFEF8BD00BF0EE032
:1078B00031462046FFF788FEF7E731462046FFF7BE
:1078C00083FEF2E731462046FFF77EFEEDE700BF7C
:1078D00068460088002812D0F08800280FD0F08871
:1078E00069460988884202DD6846008800E0F08821
:1078F000009069460A8829462046FFF78DFE00BFA2
:10790000D3E70146002002E0421CD0B2491C0A78AD
:10791000002AF9D1704738B504460D460020009082
:10792000A078022802D0032810D100E000BF012077
:107930000090A068002803D002210098084300901E
:10794000022269462046FFF767FE04E029462046EA
:10795000FFF73AFE00BF00BF38BDF8B504460D463C
:1079600017460026002C1ED02046FFF7CAFF400015
:10797000801C38803A783046711CCEB22A540322DB
:107980003046711CCEB22A540AE022783046711C6F
:10799000CEB22A54641C00223046711CCEB22A5446
:1079A00020780028F1D1F8BD0246012902D101203A
:1079B000014B18700020704740010020F8B50646C2
:1079C0000F460025012057490870002056490870CD
:1079D00056480068401C55490860554840793A2887
:1079E00015D172B6FEF78EFDFEF7E6F95149524801
:1079F000FEF7ACF9FEF7A0F900BFBFF34F8F4F4879
:107A00004F49C860BFF34F8F00BF00BFFEE74D482E
:107A10000078002807D00120400302F017FC002066
:107A20004849087006E00120400302F009FC0120EB
:107A3000444908703E480079742812D13C48807946
:107A400041490880002505E03949E81D085C3F49A7
:107A500048556D1C3C4800888542F5DB01203C49B7
:107A6000087033480079752802D10120394908701F
:107A70002F480079762812D12D4880793249088024
:107A8000002505E02A49E81D085C304948556D1C71
:107A90002D4800888542F5DB0120234908702448E1
:107AA0000079992821D12448001D00F095FF044653
:107AB0009920294908718C712004000EC871200298
:107AC000000E0872200E48721B48083000F084FF38
:107AD000044621498C722004000EC8722002000E58
:107AE0000873200E487300F0B1FD4023104A812135
:107AF0003046FDF7F5FE0120400302F0A1FB1448DB
:107B0000007800280CD113480078002808D10648D6
:107B10000078002804D10349087001200249087048
:107B20000020F8BDBE060020B60600203406002066
:107B30003C14002077077077003800080400FA052D
:107B400000ED00E0F4050020F0050020480C0020C6
:107B5000800100207D010020B809002070B5044696
:107B60000D4681212046FDF795FD01212046FDF7B8
:107B700091FD002070BD014600207047024629207B
:107B8000088001487047000028F2000870B50446DC
:107B90000D46FF235133002281212046FDF7C0FF0F
:107BA000FF236133002201212046FDF7B9FF0323A3
:107BB000402281212046FDF7EEFD032340220121D2
:107BC0002046FDF7E8FD4023034A01212046FDF74A
:107BD00087FE002070BD00003C14002070B50646F2
:107BE0000C461546B078032805D12B462246812144
:107BF0003046FDF71DFF002070BD0000F8B50546BA
:107C00000C460026002700200090207860210840C4
:107C1000002836D0202868D16078801E030000F04C
:107C200007FC0A150A28282828281B100628A078EF
:107C30002F49086023E001222D492846FFF7ECFC7C
:107C40001DE0608800122B49086018E001222949D4
:107C50002846FFF7E1FC12E0012027490870A078D0
:107C600026490870A679324625492846FFF7B4FC14
:107C700005E021462846FFF7A7FC0220F8BD00BF1B
:107C800033E06078062804D00A2823D00B282BD1B3
:107C900026E060880012222809D1E088322801DD20
:107CA000322000E0E0880746164800900CE060882B
:107CB0000012212808D114480090E088092801DD2D
:107CC000092000E0E08807463A4628460099FFF779
:107CD000A3FC09E001220D492846FFF79DFC03E0C3
:107CE000A0780A49086000BF00BF00BF0020C5E7B8
:107CF00024060020280600201D0600201C06002067
:107D00003C14002051F200083AF20008200600203E
:107D1000F8B504460D4616461F46204600F0CEFA3A
:107D20002046FFF739FDC0200651C4200751C82066
:107D30000551FEF755F92046FDF7D4FEC421095937
:107D400008688047204600F0ADFA2046FDF796FC13
:107D5000F8BD027E0A70427E4A70837EC27E1202A5
:107D60009A184A80037F427F12029A188A80837F82
:107D7000C27F12029A18CA80CB88436401224270E3
:107D8000704710B504464023002211462046FDF7F7
:107D9000C7FE8023002219462046FDF7C1FE0023BE
:107DA000402219462046FDF7F6FC002340228021A0
:107DB0002046FDF7F0FC0120A070207CC42212595F
:107DC00051688847002010BD10B50446C4210959E8
:107DD00008698047E078A070002010BD10B5044607
:107DE000C0200059C069002804D0C0200059C169D2
:107DF00020468847002010BD70B504460D46A8886F
:107E000000281BD1E888002818D1A8784606760EED
:107E1000A078032804D129462046FFF7D5FB11E0BE
:107E20002671094806602046FFF707FC002E02D0A5
:107E30000220A07006E00120A07003E02946204641
:107E4000FFF7C2FB70BD00000001002070B50446C2
:107E50000D46C02000592946026820469047C4219B
:107E6000095988688047002070BD000070B504463D
:107E70000D46A8782C49087008460078012804DDD2
:107E800029462046FFF7A0FB4CE0A078022802D04C
:107E9000032841D115E02448007800280DD022485D
:107EA000007820700320A0701F4801782046FFF75B
:107EB000CDFF2046FFF7C1FB02E02046FFF7BDFBE8
:107EC0002FE01948007800280DD10220A070164834
:107ED00000782070144801782046FFF730FB2046D8
:107EE000FFF7ABFB17E020780F49097888420FD0E5
:107EF00021782046FFF723FB0B48007820700A48C2
:107F000001782046FFF7A2FF2046FFF796FB02E02C
:107F10002046FFF792FB04E029462046FFF754FB7A
:107F200000BF00BF70BD00000401002070B5044612
:107F30000D466888012809D1A060C0200059294653
:107F40008268204690472046FFF777FB70BD1CB53E
:107F5000044669462046FFF7FCFE68460078C006E6
:107F6000C00E002804D0012807D002280FD109E054
:107F70006946204600F017F812E06946204600F0F6
:107F8000F5F80DE06946204600F046F808E068463E
:107F900000788022104001462046FDF701FD00BF19
:107FA00000BF00201CBD70B505460C460026607859
:107FB000030000F03DFA0A1A24291F290B0629158F
:107FC000102921462846FFF710FC22E021462846CA
:107FD000FFF712FF1DE021462846FFF747FF18E094
:107FE00021462846FFF7DBFB13E021462846FFF732
:107FF00092FC0EE021462846FFF798FF09E0214653
:108000002846FFF7A7FA04E021462846FFF7DCFAE6
:1080100000BF00BF304670BDF8B505460E460020D3
:108020000090002734797078002859D001282CD08E
:10803000032875D1A878022802D003281ED108E0B1
:10804000002C05D0802C03D021462846FDF7A8FC43
:1080500019E07088002807D1002C05D0802C03D0AF
:1080600021462846FDF79CFCC020405931468268D5
:10807000284690472846FFF7E0FA04E031462846B4
:10808000FFF7A2FA00BF00BF6DE0A878022802D077
:1080900003281ED108E0002C05D0802C03D02146F7
:1080A0002846FDF77DFC19E07088002807D1002CD8
:1080B00005D0802C03D021462846FDF73FFBC02089
:1080C000405931468268284690472846FFF7B5FA5E
:1080D00004E031462846FFF777FA00BF00BF42E0D0
:1080E000A878022802D0032835D108E0002C05D05A
:1080F000802C03D021462846FDF752FC30E080203A
:108100002040802810D16006400E2821484329468F
:10811000203140188078002803D00120009014E01E
:1081200020E00020009010E08020204000280CD1AA
:10813000282060432946703140188078002802D0FA
:108140000120009001E000200090022269462846AC
:10815000FFF762FA04E031462846FFF735FA00BF20
:1081600000BF00E000BF00BF3846F8BD70B5044650
:108170000D460026A078032817D1287901280FDCA6
:10818000C020005929468268204690470646E88864
:10819000002809D1002E07D12046FFF74EFA03E050
:1081A00029462046FFF710FA04E029462046FFF74B
:1081B0000BFA00BF00BF304670BD10B50446A07872
:1081C000E0700420A070C4210959C86880470020CD
:1081D00010BD000070B505460C462246024903A0BA
:1081E000FFF7BBFB004870BDF8060020484944205B
:1081F000436F6E66696700007047000002461220F8
:10820000088001487047000083F2000870477047FB
:108210007047704770B505460C462246024903A0D8
:10822000FFF79BFB004870BDF8060020484944203A
:10823000496E746572666163650000000246042041
:1082400008800148704700009FF2000870B505469D
:108250000C462246024903A0FFF77FFB004870BD91
:10826000F8060020534D4152545F5445524D4F0083
:1082700070B505460C462246024903A0FFF76DFB88
:10828000004870BDF8060020437573746F6D204878
:108290004944000002461A20088001487047000047
:1082A0005406002038B504461F216846017000219D
:1082B000417001218170FDF713FF38BD10B50446F0
:1082C0000121C805FDF7B2FF8020FEF70DF910BDB2
:1082D00010B500F001F810BD08B5002100913F482D
:1082E000406881B20091684600880121C9030840B6
:1082F0003B4909680840002801D0FCF7DFFF6846C9
:108300000088012189020840354909680840002891
:108310000BD034483149486033480068016933481C
:10832000884700213148FDF715FB68460088012188
:10833000490308402A4909680840002802D02C480F
:1083400026494860684600880121090308402449FD
:108350000968084000280AD0264820494860224879
:1083600000688169214888470020FEF7D7F86846F1
:1083700000880121C90208401949096808400028FD
:1083800009D01D48154948601748006841691748D9
:108390008847FEF7A7FB684600880121490208408C
:1083A0000F4909680840002807D014480B49486065
:1083B0000D480068C1680D48884768460088FF215D
:1083C00001310840064909680840002805D00C48DA
:1083D000024948600720FEF7A1F808BD405C004054
:1083E000D4000020FFFB0000FC0000200C0E002049
:1083F000FFDF0000FFEF0000FFF70000FFFD0000BF
:10840000FFFE0000F8B5571C7F100097074FCD19ED
:10841000009B08E00478401C07783E0226432E802B
:10842000AD1C401C5B1E002BF4D1F8BD0060004069
:1084300030B47446641E2578641CAB4204D3635D7B
:108440005B00E31830BC18471D46F8E74900CA0234
:108450000243100000D004204A0D01D00122104335
:10846000044A490D914201D102210843012800D15B
:1084700005207047FF070000F8B504464F1EC800EE
:108480000838211815461E46086849683A460623EA
:108490009A4310D02A463346FCF7D6FB3A46D20020
:1084A000083AA3181A687F1E5B68FCF7F3F80622E7
:1084B0003B469343EED1022F23D0042F11D0062F39
:1084C0002FD12A463346FCF7BFFBE36AA26AFCF7CA
:1084D000E1F82A463346FCF7B7FB636A226AFCF7E9
:1084E000D9F82A463346FCF7AFFBE369A269FCF7EB
:1084F000D1F82A463346FCF7A7FB63692269FCF7EB
:10850000C9F82A463346FCF79FFBE368A268FCF7EC
:10851000C1F82A463346FCF797FB63682268FCF7EC
:10852000B9F8F8BD002210B5134610460149FCF712
:10853000E1F810BD0000F03F10B5FCF7ABF810BD3E
:10854000002210B5134610461146FCF7D3F810BDB3
:1085500010B50721024A00200907FCF7EDFC10BD09
:1085600001030000034A10B500201107FCF7E4FCEA
:1085700010BD000001FDFFFFF8B507460C4625467B
:1085800010E00A213846FBF759FE0E460A2138460C
:10859000FBF754FE074630463030C1B2681E044A2D
:1085A0001154C5B2002DECDC002001490855F8BD7E
:1085B0002810002001460120044A525C002A03D101
:1085C0000122024B5A54002070470000CC160020B4
:1085D00030B587B004460D46019500200290039007
:1085E000049006900C20059001A92046FEF710F893
:1085F00000216846417001218170002C0ED11B20A2
:10860000694608706846FDF76BFD0E48006820213A
:1086100008430C4908601B20FDF74EFD012C0ED1CC
:108620001C20694608706846FDF75AFD0648006838
:1086300020210843044908601C20FDF73DFD07B0D8
:1086400030BD0000003801400044004010B5022059
:108650000D4908700D48807888700C484079487141
:108660000B48007800280AD00A488078032806D1F1
:1086700040220848FFF7B2FA0020054908703F2160
:108680000148FBF7D7FD10BDB80900203C140020BD
:10869000400100200C0E002070B5452051490870A3
:1086A0005A204870412088705020C870002406E08D
:1086B0004D48015D4B4A201D1154601C84B2062CAC
:1086C000F6DB002408E048485E38015D454A204654
:1086D00013301154601C84B20C2CF4DB332041495C
:1086E000C8724248007808733F495E39488E7D2140
:1086F000C900FBF7ADFD30303A49C8773A495E39D9
:10870000488E6421FBF7A4FD06460A21FBF7A0FD75
:10871000303134482030017033495E39488E0A21A7
:10872000FBF796FD06460A21FBF792FD30312D48F6
:10873000203041702C495E39488E0A21FBF788FDB4
:108740003031284820308170042408E02548005D3D
:108750007F2802DD2D2023490855601C84B2402C5F
:10876000F4DB002407E02248015D1E4A2046403029
:108770001154601C84B23C2CF5DB7B211948FCF7BA
:1087800039FF05461A48203005772846FF2109029F
:108790000840010A16482030417700241BE01448A5
:1087A000005D7F280BDD7F210E4A2046803011546A
:1087B0000F48005D014020464030115409E000217F
:1087C000084A2046803011540948015D2046403057
:1087D0001154601C84B2402CE1DBC02005490880A4
:1087E00070BD0000880B0020DE1400209C060020D5
:1087F00078090020F005002070B50646012E06D04D
:10880000022E06D0032E06D0042E08D105E01C4C03
:1088100005E01C4C03E01C4C01E01C4C00BF00BFF9
:10882000002506E0615D00222846FEF761FC681C19
:10883000C5B2042DF6DBA17801220220FEF758FC18
:108840007D20C000FDF7AAF9002211461046FEF770
:108850004FFC012507E0681E215C00222846FEF738
:1088600047FC681CC5B2042DF5DBA178012203206A
:10887000FEF73EFC7D20C000FDF790F970BD0000C2
:10888000E6F10008EAF10008EEF10008F2F1000854
:10889000F8B506460C460A212046FBF7D9FC3849B4
:1088A000095C684681700A212046FBF7D1FC3448F8
:1088B000415C6846C1703300FFF7BAFD0954060CED
:1088C00012181E262E4054007721684601700021A0
:1088D000417047E03D21684601707721417041E0D9
:1088E0007C2168460170002141703BE03D216846D3
:1088F00001707C21417035E03F2168460170712193
:108900004170002181702DE03921684601703821C5
:1089100041700021817025E07C21684601700021B2
:108920004170012C04D15C2181705421C17004E09C
:108930005C2168468170F121C17013E076206946A0
:108940000870332C02D10E4840784870552C03D162
:108950000B488078694648705C21684681705421D4
:10896000C17000BF00BF002507E06846415D0022DE
:108970002846FEF7BDFB681CC5B2042DF5DBF8BD2B
:10898000DCF10008F0B502460B460026581E84B202
:1089900018E0002112E04800105A4F1C7F00D75BFE
:1089A000B84209DD4800155A481C4000105A4F00D3
:1089B000D053481C40001552481C81B2A142EADB4A
:1089C000601E84B2002CE4DC1846DF0F3F187F10D5
:1089D0007F00D65B3046F0BD014608687047000056
:1089E000F0B58BB004460D460020049000221346DB
:1089F0002046294606F0BEFB02D22B20039013E04E
:108A0000002213462046294606F082FB0AD22D207A
:108A1000039000225C4B20462946FCF715F90446DA
:108A20000D4601E05F20039058490398087000222A
:108A300013462046294606F039FB7DD020462946BC
:108A4000FCF77CF80290029800284FD00A21029887
:108A5000FBF7FEFBCFB2002F01D00120059064216F
:108A60000298FBF7F5FB01910A210198FBF7F0FB57
:108A7000C0B209900998002801D002200590204634
:108A80002946FCF75BF8029064210298FBF7E0FBB3
:108A9000C0B208900898002801D0032005900598DE
:108AA000012804D002280BD003281ED111E0302069
:108AB000364948703818887004260220059014E062
:108AC0000998303031494870384630308870042673
:108AD0000BE0089830302D49487009983030887084
:108AE00038463030C870052600BF0AE027480078B5
:108AF000264948705F2008703020887004260220C4
:108B000005900022224B20462946FCF79DF8019152
:108B10000090FCF713F8029064210298FBF798FB91
:108B200002912E21701E194A11540A210298FBF756
:108B30008FFBC8B2079000E012E0029A0799501A22
:108B40000A21FBF785FBC0B20690069830300F492A
:108B5000885507983030C1B20C4A701C11540BE094
:108B60005F200A494870302088702E20C87030205D
:108B700008714871022005900598001DC0B204904C
:108B800004980BB0F0BD00000000F0BFA806002064
:108B900000005940F0B5A5B046240021012080070F
:108BA000FEF73AFACD48C078CD490876CB4800792F
:108BB00048760846407E122830D0802512E0C7480B
:108BC0004038405D7F280BD128464038C3494039A2
:108BD000085C8030C1B228464038C04A403A11543F
:108BE000681CC5B2C02DEADB7B21BC484038FCF7CD
:108BF00001FD0646B9482030007FB8492031497F41
:108C000009020843B5492031897F09040843B34963
:108C10002031C97F0906084307462CE0002507E0FC
:108C2000281DAE494039085C01A94855681CC5B2E9
:108C3000342DF5DB342508E028461130A7494039AA
:108C4000085C01A94855681CC5B28E2DF4DB8E2145
:108C500001A8FCF7CFFC86B2A0484030C77F014690
:108C60002031097809020F437006400E7104490E45
:108C70000902084306469A48407E24287ED0984838
:108C8000407E1128FAD09648407E1228F6D09348AC
:108C90004038005D92490860601CC4B28F4840387B
:108CA000005D0002096808438D490860601CC4B279
:108CB0008A484038005D0004096808438849086014
:108CC000601CC4B285484038005D4860601CC4B276
:108CD00082484038005D0002496808438049486086
:108CE000601CC4B27D484038005D000449680843F8
:108CF0007B494860601CC4B278484038005D087207
:108D0000601CC4B275484038005D4872601CC4B233
:108D100072484038005D8872601CC4B26F484038A9
:108D2000005DC860601CC4B26C484038005D000241
:108D3000C96808436A49C860601CC4B267484038C3
:108D4000005D0004C96808436549C860601CC4B27E
:108D500062484038005D0882601CC4B25F484038F9
:108D6000005D0002098A08435D490882601CC4B2A4
:108D70005A484038005D8874601C00E044E0C4B28A
:108D800056484038005DC874601CC4B2534840382F
:108D9000005D0875601CC4B250484038015D504801
:108DA0004175601CC4B24D484038015D4C48817526
:108DB000601CC4B249484038015D4948C175601C17
:108DC000C4B246484038005D45494883601CC4B27F
:108DD00042484038005D0002498B084340494883BF
:108DE000601CC4B23D484038005D0877601CC4B2C6
:108DF0003A484038005D4877601CC4B23748403874
:108E0000005D8877601CC4B2BE4229D13448007E20
:108E100034490978884219D04D203349887001209F
:108E2000324908702E48C07C314908802C48C068FF
:108E3000304908602A48007E2A4908702848407E48
:108E4000112806D100202C49087002E0582026493C
:108E500088702348007E294908752148407E48755E
:108E60005020FCF79BFE1E48417E25A005F02EFBFE
:108E70005020FCF793FE1A48017E24A005F026FB43
:108E80001948203006763004010E1748203041760C
:108E90003002010E144820308176310EC1760F4821
:108EA0002030017F1048203001770C482030417F6E
:108EB0000D482030417709482030817F0A48203012
:108EC000817706482030C17F07482030C1770121D3
:108ED0008807FEF7A1F825B0F0BD0000780A002051
:108EE000DC0E00202D0600207809002081010020E2
:108EF0004A010020AC050020B6060020C80800206A
:108F0000436F6D6D616E643A20000000436F756EB3
:108F10007420636F6D6D616E643A200010B5002A95
:108F200028D0002911D1552808D10923DB069B69D7
:108F3000102423430924E406A36117E0224B9B6914
:108F400004242343204CA36110E0552806D11F4B75
:108F50001B89102423431D4C238107E01A4B203327
:108F60001B8904242343184C203423815523184C97
:108F7000637127E0002911D1552806D1134B1B89B5
:108F800010242343114C238119E00F4B20331B89FC
:108F9000042423430C4C2034238110E0552808D1AD
:108FA0000923DB069B69102423430924E406A361FB
:108FB00005E0054B9B6904242343034CA361332341
:108FC000034C637110BD00000004004820000048FD
:108FD000C808002010B53E48807B552877D13D4811
:108FE0000078002873D13C4800683C4909688842F1
:108FF00013D93B48006838490968884209D2384883
:10900000006836490968884203D90120354908704B
:1090100016E000203349087012E0314800682E49FC
:109020000968884209D92E4800682C490968884295
:1090300003D200202B49087002E001202949087062
:109040002848007800281AD0274800682249096873
:10905000884209D22448006820490968884203D917
:1090600001202249087024E01948007B1849897CB6
:10907000401A1749087302201C49087019E01A4861
:10908000006815490968884210D2174800681349DA
:10909000096888420AD90E48007B0D49897C40182E
:1090A0000B49087303201149087002E004200F499E
:1090B0000870012007490870400301F0C7F87D20BF
:1090C000C000FCF76BFD0120400301F0B9F810BDB2
:1090D000C80800207E010020B8050020B40500204B
:1090E000AC0500207F010020740100204301002016
:1090F000002005E00449095C8200044B9950401CA3
:109100001428F7DB70470000F8090020F008002061
:1091100070B505460024DB48008A80210840C01154
:10912000002806D0D748008A4900084000120028CD
:1091300002D10020D44908802B00FFF779F90936C5
:10914000063772A2D2FDFCFB3600D048047BCD4826
:10915000008AFF2101310840001200280AD1C948C5
:10916000008A80210840C011002803D0012C01DDB5
:10917000601EC4B2C348008A80210840C011002884
:109180000AD1C048008A490008400012002803D0D4
:10919000322C01DA601CC4B2BC48007BA04202D071
:1091A0000120BB490870B948047362E1B749088AD5
:1091B0006421FBF74DF8C4B2B248008AFF210131A7
:1091C0000840001200280AD1AE48008A80210840D9
:1091D000C011002803D0012C01DD601EC4B2A948D3
:1091E000008A80210840C01100280AD1A548008AC1
:1091F000490008400012002803D0322C01DA601C1C
:10920000C4B2A249088A6421FBF722F8C0B2A04286
:1092100002D001209E490870642060439B49088267
:1092200027E164219B480088FBF712F8C4B29548F7
:10923000008AFF2101310840001200280AD191481C
:10924000008A80210840C011002803D0012C01DDD4
:10925000601EC4B28B48008A80210840C0110028DB
:109260000AD18848008A490008400012002803D02B
:10927000322C01DA601CC4B2642060438549088046
:10928000F7E0642184480088FAF7E2FFC4B27D4821
:10929000008AFF2101310840001200280AD17948D4
:1092A000008A80210840C011002803D0012C01DD74
:1092B000601EC4B27348008A80210840C011002893
:1092C0000AD17048008A490008400012002803D0E3
:1092D000322C01DA601CC4B2642060436E490880FD
:1092E000C7E06E480078002801D0012400E0002487
:1092F0006448008AFF21013108400012002806D18D
:109300006048008A80210840C01100280ED15D48C5
:10931000008AFF21013108400012002811D059486D
:10932000008A80210840C01100280AD1012C04D1F4
:10933000002403E071E03CE00DE0012401205449E9
:109340000870002C03D100205449087002E001206D
:10935000524908708DE0524804784A48008AFF213B
:1093600001310840001200280CD14648008A8021B3
:109370000840C011002805D0022C02DB601EC4B2D8
:1093800000E007243F48008A80210840C0110028DF
:109390000CD13C48008A490008400012002805D042
:1093A000062C02DC601CC4B200E001243C480470BE
:1093B0005FE03C480078012801D1012400E000244E
:1093C0003048008AFF21013108400012002806D1F0
:1093D0002C48008A80210840C01100280ED129485D
:1093E000008AFF2101310840001200280BD02548D7
:1093F000008A80210840C011002804D1012C01D12D
:10940000002400E00124002C03D10020254908702D
:1094100002E00120234908702BE01C48447B1948D6
:10942000008AFF21013108400012002806D11548AA
:10943000008A80210840C01100280DD11148008AFF
:1094400080210840C011002812D10E48008A49002E
:109450000840001200280BD0332C03D155200B49B3
:10946000487302E033200949487301200849087015
:1094700000BF00BF21460C480078FFF709FA2046DC
:1094800070BD000000040048A8050020C8080020A6
:10949000D205002054010020560100207C0100204C
:1094A000CD05002058010020CE050020F8B5044667
:1094B000002702E0781C87B2641C20780028F9D1CC
:1094C000E41B002616E0002506E021781B4AE81D73
:1094D0001154641C681C85B2392DF6DB74201749C1
:1094E000087139208871FFF7B1F86420FCF756FB4A
:1094F000701C86B239213846FAF7AAFEB042E2DC87
:1095000039213846FAF7A4FE002916D0002506E0D6
:1095100021780A4AE81D1154641C681C85B2392D53
:10952000F6DB74200549087139213846FAF790FEB8
:10953000C8B202498871FFF789F8F8BDB809002060
:1095400000B587B001214802FCF780FE00200190A1
:10955000694608720590039001A8FBF7A6FE072252
:1095600040210648FBF74AFE0448FBF75FFE012155
:109570000248FBF74FFE07B000BD00000024014089
:1095800010B500200C49C8600846806901210843D5
:109590000949886100210948016103200002084946
:1095A000086088604815C86000210720FCF7D0FDDE
:1095B0000720FCF78BFD10BD0010024000000140A9
:1095C000000401401CB51C484069012149040843BE
:1095D000194948611948009001216846017100212C
:1095E00081710321417169460920C006FCF732FCF4
:1095F000E02000900321684601710121C17103211F
:10960000417169460920C006FCF724FC03200002D2
:1096100000900021684601710121C171694609204D
:10962000C006FCF717FC0920C00680690221084328
:109630000921C90688611CBD0010024013A4000066
:109640001CB5244840690121890408432149486127
:10965000214800900121684601710021817101219A
:10966000C1710321417169461C48FCF7F3FBFF20DF
:10967000C13000900021684601710121C171694625
:109680001648FCF7E7FB03200090032168460171B0
:109690000121C1710321417169461048FCF7DAFBD1
:1096A0000E48203000890121890208430B492031EE
:1096B00008810846008901214902084307492031F1
:1096C0000881084600892021084304492031088187
:1096D0001CBD0000001002402406000000040048E9
:1096E00070B500250120CC4908700020CB490870D6
:1096F00000F024FC0020CA490860CAA0FDF71AF84F
:10970000C9A0FDF717F83220FCF748FA0020C3493A
:109710000870C4A0FDF70EF8C3A0FDF70BF805F024
:1097200009FC002802D1BFA0FDF704F8BF4800786B
:10973000112873DABEA0FCF7FDFFBBA0FCF7FAFF0F
:1097400005F0F8FB002808D1B9A0FCF7F3FFB6A09C
:10975000FCF7F0FFB9A0FFF7A9FE3220FCF71EFAD4
:10976000AE480078002800D101250020AB490870E0
:10977000B9A0FCF7DFFF002405E0BA49085DFCF75B
:10978000C7FF601CC4B2A94800788442F5DBB6A0CC
:10979000FCF7D0FF002406E0B2491031085DFCF769
:1097A000B7FF601CC4B2082CF6DB2220FCF7B0FF28
:1097B0009DA0FCF7BFFF05F0BDFB00287AD1AB48A8
:1097C0000078022812D100240DE0E1208000FCF78F
:1097D000E5F905F0AFFB002803D00720A349087086
:1097E00003E0601CC4B20C2CEFDB00BF8B48007898
:1097F000002869D198A0FCF79DFF002405E0994955
:10980000085DFCF785FF601CC4B28848007884427C
:10981000F5DB95A0FCF78EFF002407E058E09149A6
:109820001031085DFCF774FF601CC4B2082CF6DB35
:109830002220FCF76DFF7CA0FCF77CFF05F07AFB93
:10984000002816D189480078022812D100240DE0A2
:10985000E1208000FCF7A2F905F06CFB002803D0A2
:1098600007208249087003E0601CC4B20C2CEFDBB7
:1098700000BF7FA0FFF71AFE68480078002800D1DB
:10988000012568A0FCF756FF67A0FCF753FF0024F2
:1098900000206249087012E062A0FCF74BFF62A052
:1098A000FCF748FFC820FCF779F9601CC4B2282CEB
:1098B00005DD00E008E073A0FFF7F8FD03E005F028
:1098C00039FB0028E8D000BF3220FCF767F926E01A
:1098D00074A0FCF72FFF54A0FCF72CFF9620FCF798
:1098E0005DF97CA0FCF726FF4FA0FCF723FF0020CA
:1098F0004A49087005F01EFB002808D175A0FCF746
:1099000019FF49A0FCF716FF4CA0FFF7CFFD32204E
:10991000FCF744F941480078002800D101250020D7
:109920003E4908706EA0FCF705FF3FA0FCF702FF60
:1099300005F000FB002808D169A0FCF7FBFE3AA067
:10994000FCF7F8FE6AA0FFF7B1FD3220FCF726F91C
:1099500032480078002800D1012500202F490870E6
:109960006BA0FCF7E7FE30A0FCF7E4FE05F0E2FA9E
:10997000002808D166A0FCF7DDFE2BA0FCF7DAFE7C
:1099800066A0FFF793FD3220FCF708F92348007822
:10999000002800D1012500202049087067A0FCF7AD
:1099A000C9FE30490C39488E04F074FD1EA0FCF746
:1099B000C1FE05F0BFFA00280DD160A0FCF7BAFE89
:1099C00028490C39488E04F065FD17A0FCF7B2FE5B
:1099D0005EA0FFF76BFD3220FCF7E0F80F4800783F
:1099E000002800D10125002D06D160A0FFF75EFD03
:1099F00001206449087005E063A0FFF757FD0020CF
:109A0000604908700020044908700120634908700B
:109A100063A0FCF78FFE70BDB3060020B2060020E5
:109A2000C4050020415400000D0A00008D060020EE
:109A300041542B43574D4F44453D310052657065AD
:109A4000617420636F6D6D616E642041542B4357C8
:109A50004D4F4445210A000041542B43574A415081
:109A60003D2200008C140020222C22008C060020B5
:109A70005265706561742073656E64205353494468
:109A8000210000007761697420616E737765722030
:109A9000666F7220636F6D6D616E64204F4B2E2E6A
:109AA0002E00000041542B43575341505F4445461C
:109AB0003D22536D6172745F486F6D655F455A2238
:109AC0002C2231323334353637383930222C352C8C
:109AD0003000000041542B43574D4F44453D320068
